:020000040800F2
:1000000000040020C10100080186000801860008E4
:10001000213D0008018600080186000801860008CD
:1000200001860008018600080186000881A80008F2
:1000300001860008018600080186000831200108B9
:100040000186000851E80008E1E9000831EA0008EB
:10005000018600080186000891E50008E1E5000836
:1000600031E6000881E60008D1E60008E1D7000883
:1000700031D8000881D80008D1D8000821D900085B
:1000800071D90008C1D90008D1E20008D1EB0008FD
:1000900041EC0008F1EC0008A1ED000821E70008A0
:1000A0000186000801860008811901080186000800
:1000B000F11B0108311C0108711C0108C1FE000878
:1000C0000100010801860008018600080186000879
:1000D000018600080186000801860008F120010859
:1000E000B1E70008A1E80008F1E80008018600086F
:1000F00001860008018600080186000811DA000860
:100100000186000831EF0008B11C010801860008D3
:1001100001860008018600084119010801860008CF
:1001200061DA0008B1DA000801DB000851DB0008E1
:10013000A1DB00080186000841E9000801860008EB
:10014000018600080186000801860008E112010806
:10015000F1DB000841DC000891DC000801860008A2
:100160000186000801860008018600080186000853
:1001700091E900080186000881270008018600082F
:100180000186000801860008018600080186000833
:100190000186000801860008018600080186000823
:1001A0000186000801860008018600080186000813
:1001B0000186000801860008018600080186000803
:1001C00072B62E4880F3098840F20000CCF200009D
:1001D0004EF63471CEF20001086040F20000C0F229
:1001E000F0004EF68851CEF2000108604FF000009A
:1001F000E1EE100A4EF63C71CEF2000108600620D6
:1002000080F31488BFF36F8F12F0BAF84FF05530B7
:100210001B491C4A91423CBF41F8040BFAE71A49BA
:10022000164A91423CBF41F8040BFAE71749184AB5
:10023000184B9A423EBF51F8040B42F8040BF8E702
:1002400000201549154A91423CBF41F8040BFAE7DA
:1002500008F0BEF9124C134DAC4203DA54F8041BFB
:100260008847F9E701F044F80F4C104DAC4203DA2F
:1002700054F8041B8847F9E708F0BAB900080020D1
:10028000000000200004002000040020989B0108CA
:1002900000080020E4140020E8140020607400200E
:1002A000C0010008C0010008C0010008C00100082A
:1002B0002DE9F04F2DED108AC1F80CD0D0F80CD0FC
:1002C000BDEC108ABDE8F08F08F0DAFA09F040FBC7
:1002D000002383F311882846A047002009F0A8F8DE
:1002E00009F01EFB08F0ACFA08F0CAFE08F0C8FAE4
:1002F00009F02EFB00DFFEE7000000000000000018
:1003000081F0004102E000BF83F0004330B54FEAC6
:1003100041044FEA430594EA050F08BF90EA020F33
:100320001FBF54EA000C55EA020C7FEA645C7FEAC6
:10033000655C00F0E2804FEA5454D4EB5555B8BFE9
:100340006D420CDD2C4480EA020281EA030382EA5A
:10035000000083EA010180EA020281EA0303362DEC
:1003600088BF30BD11F0004F4FEA01314FF4801CBF
:100370004CEA113102D0404261EB410113F0004FD1
:100380004FEA03334CEA133302D0524263EB430388
:1003900094EA050F00F0A780A4F10104D5F1200E26
:1003A0000DDB02FA0EFC22FA05F2801841F1000181
:1003B00003FA0EF2801843FA05F359410EE0A5F155
:1003C00020050EF1200E012A03FA0EFC28BF4CF086
:1003D000020C43FA05F3C01851EBE37101F000453C
:1003E00007D54FF0000EDCF1000C7EEB00006EEB49
:1003F0000101B1F5801F1BD3B1F5001F0CD34908D3
:100400005FEA30004FEA3C0C04F101044FEA445229
:1004100012F5800F80F09A80BCF1004F08BF5FEAB0
:10042000500C50F1000041EB045141EA050130BD90
:100430005FEA4C0C404141EB010111F4801FA4F133
:100440000104E9D191F0000F04BF01460020B1FA88
:1004500081F308BF2033A3F10B03B3F120020CDAC0
:100460000C3208DD02F1140CC2F10C0201FA0CF09E
:1004700021FA02F10CE002F11402D8BFC2F1200C03
:1004800001FA02F120FA0CFCDCBF41EA0C019040B9
:10049000E41AA2BF01EB0451294330BD6FEA040402
:1004A0001F3C1CDA0C340EDC04F11404C4F12002ED
:1004B00020FA04F001FA02F340EA030021FA04F3FF
:1004C00045EA030130BDC4F10C04C4F1200220FA56
:1004D00002F001FA04F340EA0300294630BD21FA94
:1004E00004F0294630BD94F0000F83F4801306BF5A
:1004F00081F480110134013D4EE77FEA645C18BF4E
:100500007FEA655C29D094EA050F08BF90EA020FE4
:1005100005D054EA000C04BF1946104630BD91EADC
:10052000030F1EBF0021002030BD5FEA545C05D1DF
:100530004000494128BF41F0004130BD14F580041E
:100540003CBF01F5801130BD01F0004545F0FE4192
:1005500041F470014FF0000030BD7FEA645C1ABFC7
:10056000194610467FEA655C1CBF0B46024650EAFE
:10057000013406BF52EA033591EA030F41F400212A
:1005800030BD00BF90F0000F04BF0021704730B5B0
:100590004FF4806404F132044FF000054FF0000185
:1005A00050E700BF90F0000F04BF0021704730B546
:1005B0004FF4806404F1320410F0004548BF40421B
:1005C0004FF000013EE700BF42004FEAE2014FEA70
:1005D00031014FEA02701FBF12F07F4393F07F4F4B
:1005E00081F06051704732F07F4208BF704793F04E
:1005F0007F4F04BF41F40021704730B54FF4607461
:1006000001F0004521F000411CE700BF50EA010263
:1006100008BF704730B54FF000050AE050EA01020C
:1006200008BF704730B511F0004502D5404261EB7C
:1006300041014FF4806404F132045FEA915C3FF4BD
:10064000D8AE4FF003025FEADC0C18BF03325FEA5A
:10065000DC0C18BF033202EBDC02C2F1200300FA0B
:1006600003FC20FA02F001FA03FE40EA0E0021FA30
:1006700002F11444BDE600BF0000000000000000CD
:1006800070B54FF0FF0C4CF4E06C1CEA11541DBF28
:100690001CEA135594EA0C0F95EA0C0F00F0DEF8F3
:1006A0002C4481EA030621EA4C5123EA4C5350EAD8
:1006B000013518BF52EA033541F4801143F4801329
:1006C00038D0A0FB02CE4FF00005E1FB02E506F0BA
:1006D0000042E0FB03E54FF00006E1FB03569CF00F
:1006E000000F18BF4EF0010EA4F1FF04B6F5007F15
:1006F00064F5407404D25FEA4E0E6D4146EB060687
:1007000042EAC62141EA55514FEAC52040EA5E500F
:100710004FEACE2EB4F1FD0C88BFBCF5E06F1ED8B9
:10072000BEF1004F08BF5FEA500E50F1000041EBF0
:10073000045170BD06F0004646EA010140EA02009D
:1007400081EA0301B4EB5C04C2BFD4EB0C0541EABF
:10075000045170BD41F480114FF0000E013C00F3D4
:10076000AB8014F1360FDEBF002001F0004170BDF8
:10077000C4F10004203C35DA0C341BDC04F1140411
:10078000C4F1200500FA05F320FA04F001FA05F29D
:1007900040EA020001F0004221F0004110EBD3706A
:1007A00021FA04F642EB06015EEA430E08BF20EA96
:1007B000D37070BDC4F10C04C4F1200500FA04F339
:1007C00020FA05F001FA04F240EA020001F00041CB
:1007D00010EBD37041F100015EEA430E08BF20EA3E
:1007E000D37070BDC4F1200500FA05F24EEA020E86
:1007F00020FA04F301FA05F243EA020321FA04F0B5
:1008000001F0004121FA04F220EA020000EBD3706B
:100810005EEA430E08BF20EAD37070BD94F0000F6B
:100820000FD101F00046400041EB010111F4801F9F
:1008300008BF013CF7D041EA060195F0000F18BF50
:10084000704703F00046520043EB030313F4801F8C
:1008500008BF013DF7D043EA0603704794EA0C0F46
:100860000CEA135518BF95EA0C0F0CD050EA41065C
:1008700018BF52EA4306D1D181EA030101F00041D9
:100880004FF0000070BD50EA410606BF1046194601
:1008900052EA430619D094EA0C0F02D150EA01360D
:1008A00013D195EA0C0F05D152EA03361CBF10464E
:1008B00019460AD181EA030101F0004141F0FE41ED
:1008C00041F470014FF0000070BD41F0FE4141F471
:1008D000780170BD70B54FF0FF0C4CF4E06C1CEA71
:1008E00011541DBF1CEA135594EA0C0F95EA0C0F26
:1008F00000F0A7F8A4EB050481EA030E52EA0335E1
:100900004FEA013100F088804FEA03334FF0805501
:1009100045EA131343EA12634FEA022245EA11152E
:1009200045EA10654FEA00260EF000419D4208BFDF
:10093000964244F1FD0404F5407402D25B084FEA8C
:100940003202B61A65EB03055B084FEA32024FF438
:1009500080104FF4002CB6EB020E75EB030E22BF95
:10096000B61A754640EA0C005B084FEA3202B6EB55
:10097000020E75EB030E22BFB61A754640EA5C0004
:100980005B084FEA3202B6EB020E75EB030E22BF94
:10099000B61A754640EA9C005B084FEA3202B6EB95
:1009A000020E75EB030E22BFB61A754640EADC0054
:1009B00055EA060E18D04FEA051545EA16754FEAB6
:1009C00006164FEAC30343EA52734FEAC2025FEAD4
:1009D0001C1CC0D111F4801F0BD141EA00014FF063
:1009E00000004FF0004CB6E711F4801F04BF014334
:1009F0000020B4F1FD0C88BFBCF5E06F3FF6AFAE50
:100A0000B5EB030C04BFB6EB020C5FEA500C50F1DF
:100A1000000041EB045170BD0EF0004E4EEA113162
:100A200014EB5C04C2BFD4EB0C0541EA045170BD69
:100A300041F480114FF0000E013C90E645EA060EAD
:100A40008DE60CEA135594EA0C0F08BF95EA0C0FDB
:100A50003FF43BAF94EA0C0F0AD150EA01347FF423
:100A600034AF95EA0C0F7FF425AF104619462CE7FA
:100A700095EA0C0F06D152EA03353FF4FDAE10465D
:100A8000194622E750EA410618BF52EA43067FF4AE
:100A9000C5AE50EA41047FF40DAF52EA43057FF43E
:100AA000EBAE12E7000000000000000000000000B4
:100AB0004FF0FF3C06E000BF4FF0010C02E000BF2A
:100AC0004FF0010C4DF804CD4FEA410C7FEA6C5C0D
:100AD0004FEA430C18BF7FEA6C5C1BD001B050EAB0
:100AE000410C0CBF52EA430C91EA030F02BF90EA9B
:100AF000020F0020704710F1000F91EA030F58BF5A
:100B0000994208BF90422CBFD8176FEAE37040F0BB
:100B1000010070474FEA410C7FEA6C5C02D150EA59
:100B2000013C07D14FEA430C7FEA6C5CD6D152EA14
:100B3000033CD3D05DF8040B704700BF84461046D9
:100B400062468C461946634600E000BF01B5FFF7D8
:100B5000B7FF002848BF10F1000F01BD4DF808EDA8
:100B6000FFF7F4FF0CBF012000205DF808FB00BF79
:100B70004DF808EDFFF7EAFF34BF012000205DF8D3
:100B800008FB00BF4DF808EDFFF7E0FF94BF012020
:100B900000205DF808FB00BF4DF808EDFFF7CEFF21
:100BA00094BF012000205DF808FB00BF4DF808ED60
:100BB000FFF7C4FF34BF012000205DF808FB00BF31
:100BC0004FEA410C7FEA6C5C02D150EA013C0AD149
:100BD0004FEA430C7FEA6C5C02D152EA033C02D13B
:100BE0004FF0000070474FF0010070470000000018
:100BF0004FEA410212F5001215D211D56FF4787345
:100C0000B3EB625212D94FEAC12343F0004343EAE7
:100C1000505311F0004F23FA02F018BF40427047C2
:100C20004FF00000704750EA013005D111F000404C
:100C300008BF6FF0004070474FF00000704700BFE2
:100C40004A0011D212F5001211D20DD56FF478734B
:100C5000B3EB62520ED44FEAC12343F0004343EAA0
:100C6000505323FA02F070474FF00000704750EAEB
:100C7000013002D14FF0FF3070474FF00000704755
:100C80004FEA4102B2F1E04324BFB3F5001CDCF1AE
:100C9000FE5C0DD901F0004C4FEAC0024CEA5070E6
:100CA000B2F1004F40EB830008BF20F00100704715
:100CB00011F0804F21D113F13872BCBF01F0004018
:100CC000704741F480114FEA5252C2F11802C2F14A
:100CD000200C10FA0CF320FA02F018BF40F00100CB
:100CE0004FEAC1234FEAD32303FA0CFC40EA0C007D
:100CF00023FA02F34FEA4303CCE77FEA625307D1BA
:100D000050EA01331EBF4FF0FE4040F440007047F0
:100D100001F0004040F0FE4040F40000704700BF8A
:100D200053B94AB9002908BF00281CBF4FF0FF3152
:100D30004FF0FF3000F074B9ADF1080C6DE904CE4E
:100D400000F006F8DDF804E0DDE9022304B07047A6
:100D50002DE9F047089E04468846002B4BD18A4275
:100D6000154667D9B2FA82F24AB1C2F1200701FAF8
:100D700002F320FA07F7954047EA030894404FEA48
:100D8000154E230CB8FBFEF71FFA85FC0EFB1788E7
:100D900043EA084307FB0CF1994209D9EB1807F124
:100DA000FF3080F01B81994240F21881023F2B44B2
:100DB0005B1AA4B2B3FBFEF00EFB103344EA03440B
:100DC00000FB0CFCA44509D92C1900F1FF3380F07D
:100DD0000781A44540F2048102382C4440EA0740D0
:100DE000A4EB0C0400271EB1D4400023C6E9004345
:100DF0003946BDE8F0878B4209D9002E00F0EB8020
:100E00000027C6E9000138463946BDE8F087B3FA45
:100E100083F7002F47D18B4202D3824200F2FA803F
:100E2000841A61EB030301209846002EE0D0C6E946
:100E30000048DDE702B9FFDEB2FA82F2002A40F094
:100E40008F80491B4FEA154E1FFA85F80127B1FB29
:100E5000FEFC230C0EFB1C1143EA014308FB0CF1C2
:100E6000994207D9EB180CF1FF3002D2994200F2F7
:100E7000CD808446591AA3B2B1FBFEF00EFB1014CC
:100E800043EA044408FB00F8A04507D92C1900F1F7
:100E9000FF3302D2A04500F2B6801846A4EB080446
:100EA00040EA0C409FE7C7F1200CBB4022FA0CFE41
:100EB0004EEA030E01FA07F420FA0CF521FA0CF3BE
:100EC0004FEA1E482543B3FBF8F92C0C08FB1933F5
:100ED0001FFA8EFA44EA034309FB0AF49C4202FA21
:100EE00007F200FA07F10BD91EEB030309F1FF30FB
:100EF00080F087809C4240F28480A9F1020973440B
:100F00001B1BADB2B3FBF8F008FB103345EA0344FA
:100F100000FB0AFAA24508D91EEB040400F1FF33D6
:100F20006BD2A24569D90238744440EA0940A0FB5B
:100F30000289A4EB0A044C45C2464B4654D351D017
:100F4000002E69D0B1EB0A0564EB030404FA0CFC33
:100F5000FD40FC404CEA0505C6E90054002747E780
:100F6000C2F1200320FA03F7954001FA02F021FABA
:100F700003F34FEA154E3843010CB3FBFEF71FFA9B
:100F800085F80EFB173341EA034107FB08F38B4258
:100F900004FA02F407D9691807F1FF3C2FD28B42FB
:100FA0002DD9023F2944CB1A81B2B3FBFEF00EFBD0
:100FB000103341EA034100FB08F38B4207D969185B
:100FC00000F1FF3C17D28B4215D902382944C91AC7
:100FD00040EA07473BE73746304609E70746E7E67A
:100FE0001846FBE64145ABD2B8EB020A69EB0E02AC
:100FF00001381346A4E76046E9E7184695E76746D7
:10100000D1E781467CE702382C4447E7ACF1020C7B
:101010002B442FE7384608E73746E9E60000000092
:10102000704700BF0000000000000000000000004A
:10103000844641EA000313F003036DD1403A41D3E3
:1010400051F8043B40F8043B51F8043B40F8043BA2
:1010500051F8043B40F8043B51F8043B40F8043B92
:1010600051F8043B40F8043B51F8043B40F8043B82
:1010700051F8043B40F8043B51F8043B40F8043B72
:1010800051F8043B40F8043B51F8043B40F8043B62
:1010900051F8043B40F8043B51F8043B40F8043B52
:1010A00051F8043B40F8043B51F8043B40F8043B42
:1010B00051F8043B40F8043B51F8043B40F8043B32
:1010C000403ABDD2303211D351F8043B40F8043BD2
:1010D00051F8043B40F8043B51F8043B40F8043B12
:1010E00051F8043B40F8043B103AEDD20C3205D3E2
:1010F00051F8043B40F8043B043AF9D2043208D0DA
:10110000D2071CBF11F8013B00F8013B01D30B884B
:1011100003806046704700BF082A13D38B078DD029
:1011200010F003038AD0C3F10403D21ADB071CBFFB
:1011300011F8013B00F8013B80D331F8023B20F865
:10114000023B7BE7043AD9D3013A11F8013B00F89E
:10115000013BF9D20B7803704B7843708B78837026
:101160006046704700000000000000000000000022
:1011700090F800F06DE9024520F007016FF0000CD7
:1011800010F0070491F820F040F049804FF000047F
:101190006FF00700D1E9002391F840F000F108005A
:1011A00082FA4CF2A4FA8CF283FA4CF3A2FA8CF392
:1011B0004BBBD1E9022382FA4CF200F10800A4FAF9
:1011C0008CF283FA4CF3A2FA8CF3E3B9D1E904234D
:1011D00082FA4CF200F10800A4FA8CF283FA4CF384
:1011E000A2FA8CF37BB9D1E9062301F1200182FA3E
:1011F0004CF200F10800A4FA8CF283FA4CF3A2FA44
:101200008CF3002BC6D0002A04BF04301A4612BA51
:10121000B2FA82F2FDE8024500EBD2007047D1E954
:10122000002304F00305C4F100004FEAC50514F0E3
:10123000040F91F840F00CFA05F562EA05021CBFB4
:1012400063EA050362464FF00004A9E700000000CE
:1012500001F0FF01102A2BDB10F0070F08D010F867
:10126000013B013A8B422DD010F0070F42B3F6D16B
:10127000F0B441EA012141EA014122F007047FF084
:1012800000070023F0E80256083C85EA010586EADB
:10129000010685FA47F5A3FA87F586FA47F6A5FA17
:1012A00087F68EB9EED1F0BC01F0FF0102F0070223
:1012B00032B110F8013B013A83EA010313B1F8D1CE
:1012C0000020704701387047002D06BF35460338AF
:1012D000073815F0010F07D1013015F4807F02BFE8
:1012E000013015F4C03F0130F0BC0138704700BF39
:1012F00000B5124B83B01B68019309F021FB07F086
:1013000097F902F0B5FC0E490E480BF091F803F086
:101310005FFB03F0D5FA01F0C3FE02F099FA02F088
:10132000DFFF00F045FA00F06BFA00F0E1F901F0A0
:1013300087FD4FF47A7007F0BBFFFAE70008002042
:1013400004080020B473002000000000000000002A
:1013500000B5084B83B01A680192019A1B689A4243
:1013600005D1054803B05DF804EB07F0C9B9FFF7F4
:10137000EFFF00BF000800206080010800000000AF
:1013800080B5234C234AA36923491668996186B026
:10139000022320250A220021009305964FF4207392
:1013A000CDE9015530201D4E1D4F01F0F9FF01F030
:1013B000FFFE002001F034FFB04601F099FE13E07B
:1013C00007F036FE07F05CFA08F0C2FA2368A34281
:1013D00007D0A2699B6892689A4202D2384607F009
:1013E0008FF9002383F3118801F05AFF01F0C0FE4A
:1013F00085F3118808F094FA07F022FA07F0F0FA62
:10140000B368002BDCDC404608F062FBD8E700BF85
:10141000906500200008002080800108100800204E
:10142000A080010800000000000000000000000093
:101430002DE9F041344D82B02B68019300F27F24F6
:10144000431E002213F8011F9C420A44FAD12F4B7D
:101450000178A3FB0223C3F34F2303EB430703EB02
:101460008707C3EBC303BFB29BB2002640F2752CC3
:1014700001EB8101721CB3EB410F92B225DD8119A2
:10148000897A01EB8101B7EB410F1EDA624528D85A
:10149000AEB302F1FF3E86441EF8011F01EB810846
:1014A000B3EB480F94B215DD1EF80A8C08EB8808E0
:1014B000B7EB480F0EDAA4EB060EBEF1630F22461F
:1014C00017DC64450DD82646D2E7624509D8164692
:1014D000815CCDE70134A4B2B4F5207F02F10102B2
:1014E000DAD10020019A2B689A420AD102B0BDE8F5
:1014F000F0813244064953100B800120F2E7304658
:10150000F0E7FFF725FF00BF00080020CDCCCCCCD2
:101510001C08002000000000000000000000000087
:101520002DE9F04F6A4C6B4BA2696B499161ADF5A7
:10153000257D0DF10C091B68A393002548464FF447
:101540002072002113F024FB2F460195634808F018
:1015500087FA202383F3118808F0E2F907F070F985
:10156000A66A07F08DF908F0F3F92368A34207D0C3
:10157000A2699B6892689A4202D2594807F0C0F863
:101580004FF0000888F3118801F062FE434682465E
:101590001AF80320C3F34E01023322F00702B3F519
:1015A000A06F09F80120F3D14846FFF741FF0AF187
:1015B000FF3E80460022501E1EF8011F1FFA82FBCC
:1015C00040101BF0010F4FEAE1034FEA411118BF31
:1015D00019F8001003F01C034FEA5B0C18BF0B4313
:1015E00002F101020CBF09F80C1009F80030B2F545
:1015F000A06FE0D14846FFF71BFF002383460AEBAC
:101600000302591052780233D200B3F5A06F09F8E3
:101610000120F4D14846FFF70BFF00283BD0B8F17A
:10162000000F41D0BBF1000F04D0019B21332135C5
:1016300001932137019B323301933237BBF1000F05
:1016400008D0019B323301933235B8F1000F29D015
:1016500032379635643710B1019B64330193214AC8
:1016600013780133DBB2142B06D0137006F164013A
:10167000304607F05DFE69E71A4A0023AF42137057
:10168000019A15D9BA421BD8174A1D460523019560
:101690002F461370EAE7BBF1000FD6D1B8F1000F67
:1016A000D8D1DCE76435D6E7BBF1000FC9D1D3E769
:1016B000AA4205D21D46019506232F460A4AD4E7C1
:1016C000094A00250423137001952F46CEE700BF79
:1016D000906500200008002090800108100800207C
:1016E000A0800108E9140020E81400200000000098
:1016F00030B50E4C0E4B22680E4885B00025039283
:101700004FF4AF614022009507F07AFD0A4B009537
:1017100040220A484FF41E7107F072FD039A2368B5
:101720009A4201D105B030BDFFF712FE000800203B
:10173000211500086817002081130008F01400200C
:1017400000B5074B07491A68087883B00192019ADF
:101750001B689A4202D103B05DF804FBFFF7F8FD65
:1017600000080020E8140020000000000000000035
:101770000EB410B583B005AA094C52F8041B2368B7
:1017800008480092019310F053FE019A23689A4290
:1017900004D103B0BDE8104003B07047FFF7D8FD97
:1017A00000080020B47300200000000000000000CA
:1017B00010B50E4C82B02368019306F019FE0C4A56
:1017C0000C490D4806F054FE02F0A2FF02F0F0FFB3
:1017D000019A23689A4206D14FF4FA7002B0BDE82C
:1017E000104007F065BDFFF7B3FD00BF0008002003
:1017F0002008002028080020E01C00200000000035
:1018000010B50A4C0A4B22680A4884B041F278119C
:10181000039200220092402207F0F2FC039A236810
:101820009A4201D104B010BDFFF792FD00080020DC
:101830009124000838220020000000000000000071
:101840002DE9F04FDFF8CC916A4CD9F800306A4DA1
:10185000DFF8C481DFF8B4B183B004F51D770193DC
:10186000C4EBC4331FFA83FA012604E0BC4206F13C
:10187000010600F0AB8035F8021B34F8020B00F0D3
:101880008FFE3B2805D82988208800F089FE3C2857
:1018900055D835F8021C34F8020C00F081FE3C28C3
:1018A000E4D92988208800F07BFE3C28DED96988AD
:1018B000608800F075FE3C28D8D9A988A08800F07F
:1018C0006FFE3C28D2D9E988E08800F069FE3C2808
:1018D000CCD92989208900F063FE3C28C6D96989C2
:1018E000608900F05DFE3C28C0D9A989A08900F07C
:1018F00057FE3C28BAD9E989E08900F051FE3C281E
:10190000B4D9298A208A00F04BFE3C28AED9698AD6
:10191000608A00F045FE3B28A8D8B20037495846F7
:10192000FFF726FF98F8002035490AEB040301EB86
:10193000C2015B00013288F800204B8096E769887D
:10194000608800F02DFE3C28A3D9A988A08800F06B
:1019500027FE3C289DD9E988E08800F021FE3C283C
:1019600097D92989208900F01BFE3C2891D96989E3
:10197000608900F015FE3C288BD9A989A08900F068
:101980000FFE3C2885D9E989E08900F009FE3C2852
:101990007FF67FAF298A208A00F002FE3C287FF67E
:1019A00078AF698A608A00F0FBFD3C287FF671AF52
:1019B000B20014495846FFF7DBFE0AEB040398F81F
:1019C00000200F495B0021F832304FE798F80020E3
:1019D0000D490E48FFF7CCFE019AD9F800300C49AA
:1019E00098F8000008709A4202D103B0BDE8F08F69
:1019F000FFF7AEFC781F0020F01C00206481010876
:101A0000042200204081010880810108B473002075
:101A10000022002000080020EC1C00200000000034
:101A20002DE9F04F214FDFF890A03B78DAF8002045
:101A300083B0019283B31E4E1E4DDFF88090DFF815
:101A40008080002406EBC40B36F83430BBF802204B
:101A500013445B089A08111D35F8120035F811106F
:101A6000ABF8043000F014FEBBF804309B080833D8
:101A700035F8131000F00CFE00F0EAFDBBF804305E
:101A8000ABF80600224649464046FFF771FE013496
:101A90003B78E4B2A342D5D8019ADAF800309A42F2
:101AA00002D103B0BDE8F08FFFF752FC0022002006
:101AB00004220020F01C00200008002050820108B1
:101AC000B4730020000000000000000000000000CF
:101AD0002DE9F04FDFF8F0A0374EDAF8003083B090
:101AE000002420460193347002F0E2FB204602F00D
:101AF000C7FB204602F07CFB204602F061FB4FF45E
:101B00007A7007F0D5FB3378002B4BD12B4C2C4F40
:101B1000DFF8B890DFF8B88012E0584602F068FBB2
:101B2000584602F04DFB0123494640463370FFF70B
:101B30001FFE05F10A01284607F0FAFB33788BBB3C
:101B4000202383F3118807F0EBFE06F079FEA56AE7
:101B500006F096FE07F0FCFE2368A34207D0A269B8
:101B60009B6892689A4202D2164806F0C9FD4FF06F
:101B7000000B8BF3118802F053FBBA880028B8BF22
:101B800040429042C9DC6FF0C70002F031FBC82030
:101B900002F016FB05F10A01284607F0C9FB33786D
:101BA000002BCDD0019ADAF800309A4202D103B06E
:101BB000BDE8F08FFFF7CCFB3422002090650020B9
:101BC000042200201081010800080020B0810108D3
:101BD000B4730020000000000000000000000000BE
:101BE0002DE9F04FDFF86881564FD8F8003083B008
:101BF0000024204601933C7002F05AFB204602F07C
:101C00003FFB204602F0F4FA204602F0D9FA4FF4E6
:101C10007A7007F04DFB3B78002B56D14A4CDFF829
:101C20003491DFF834B1DFF834A10FE04FF4FA70EB
:101C300002F0DEFA4FF4FA7002F0C2FA06F10A017D
:101C4000304607F075FB3B78002B3ED1202383F311
:101C5000118807F065FE06F0F3FDA66A06F010FE97
:101C600007F076FE2368A34207D0A2699B689268BA
:101C70009A4202D2484606F043FD002585F31188BA
:101C8000284602F0B5FD2828D0DD072002F0B0FD7F
:101C90002828CBDD284602F0ABFA284602F090FA5D
:101CA0000123594650463B70FFF762FD02F0B8FA37
:101CB000264B0028B8BF4042D88006F10A013046C2
:101CC00007F036FB3B78002BC0D040F6B83007F069
:101CD000EFFAFFF735FD052828D0002319461846EE
:101CE0000A2201F01DFF002319460A22012001F0FB
:101CF00017FF002319460A22022001F011FF0023DA
:101D000019460A22032001F00BFF4FF47A7007F006
:101D1000CFFA01F01DFF019AD8F800309A420FD196
:101D2000322003B0BDE8F04F07F0C2BA019AD8F8EC
:101D300000309A4204D103B0BDE8F04F01F0E8B89A
:101D4000FFF706FB342200209065002004220020CB
:101D5000000800201081010820810108B4730020D0
:101D60002DE9F04F451CC44CC44F2DED028B4FEABA
:101D7000C00AED00661904EB0A0B8046BBF804307C
:101D8000B0883A6889B0C01A80B2079200F020FC8F
:101D900010EE100AB8F1000F40F0D981F388B4F8C2
:101DA00006B0A3F56178FEF70FFC41EC100B10F0C4
:101DB00017FE08FB08F00BFB0B008DED040BFEF784
:101DC000F1FBCDE902014FEA4B0008FB00F0FEF702
:101DD000E9FB9DED040B53EC102BFEF751FC0B4679
:101DE0000246DDE90201FEF78FFA41EC100B10F01C
:101DF000B7FE51EC100BFEF723FFF188E388804615
:101E000008FB08F203FB0322A1F5617107EE102A1B
:101E100007EE901AB8EE477AF8EEE77A5B0008FB17
:101E200003F3A7EEE77A2544544407EE903AF8EE20
:101E3000677A9FED938A934EC7EE277A17EE900A42
:101E4000FEF7C2FB41EC100B10F02AFE51EC100B18
:101E5000FEF716FF07EE900A38EE678AB0EE480AE2
:101E600000F0D6FBF0EE408AB0EE480A00F0D0FB5E
:101E7000AB8807EE903AA388F8EEE77A08EE103ABE
:101E800030EE670AB8EEC88A18EE900A30EE088A7B
:101E9000FEF79AFB00240B4602467B49CDF80080F2
:101EA0007A48FFF765FC2046347002F001FA2046BC
:101EB00002F0E6F9204602F09BF9204602F080F994
:101EC0004FF47A7007F0F4F93378002B51D1704C4D
:101ED000DFF8C8A1DFF8B49113E0584602F088F9A2
:101EE000584602F06DF90123514648463370FFF71A
:101EF0003FFC05F10A01284607F01AFA3378002B57
:101F000037D1202383F3118807F00AFD06F098FCEF
:101F1000A56A06F0B5FC07F01BFD2368A34207D0B5
:101F2000A2699B6892689A4202D25A4806F0E8FB7E
:101F30004FF0000B8BF3118802F072F90028B8BF44
:101F4000404207EE900AF8EEE77AF4EEE87AF1EE16
:101F500010FAC2DC6FF0C70002F04AF9C82002F0A4
:101F60002FF905F10A01284607F0E2F93378002B32
:101F7000C7D000242046347002F09AF9204602F0BF
:101F80007FF9204602F034F9204602F019F94FF4A7
:101F90007A7007F08DF940493C48FFF7E9FB337848
:101FA000002B4AD13A4CDFF8F8A0DFF8E09012E0BD
:101FB000584602F01DF9584602F002F90123514635
:101FC00048463370FFF7D4FB05F10A01284607F0B5
:101FD000AFF933788BBB202383F3118807F0A0FC83
:101FE00006F02EFCA56A06F04BFC07F0B1FC236856
:101FF000A34207D0A2699B6892689A4202D2254800
:1020000006F07EFB4FF0000B8BF3118802F008F90D
:102010000028B8BF40424045CAD84FF4FA7002F0D9
:10202000E7F84FF4FA7002F0CBF805F10A01284600
:1020300007F07EF93378002BCDD000242046347091
:1020400002F036F9204602F01BF9204602F0D0F8E3
:10205000204602F0B5F84FF47A7007F029F933788A
:10206000002B6BD10A4CDFF82CA0DFF83490DFF89E
:102070001C80B1EE488A29E00422002000080020DC
:10208000DB0F494034220020D0810108B4730020C6
:102090009065002010810108188201080082010863
:1020A00030820108584602F0A3F8584602F088F83A
:1020B0000123494640463370FFF75AFB05F10A01F8
:1020C000284607F035F93378002B37D1202383F3E6
:1020D000118807F025FC06F0B3FBA56A06F0D0FBDB
:1020E00007F036FC2368A34207D0A2699B68926878
:1020F0009A4202D2504606F003FB4FF0000B8BF3DE
:10210000118802F08DF80028C8BF404207EE900AFF
:10211000F8EEE77AB4EEE78AF1EE10FAC2DCC820F6
:1021200002F066F86FF0C70002F04AF805F10A0104
:10213000284607F0FDF83378002BC7D0079A3B6894
:102140009A423CD109B0BDEC028BBDE8F08FBBF8E0
:102150000630F288A3F56179A2F56178FEF734FACA
:1021600041EC100B10F03CFC08FB08F009FB0900E7
:102170008DED040BFEF716FACDE902014FEA490096
:1021800008FB00F0FEF70EFA9DED040B53EC102B4C
:10219000FEF776FA0B460246DDE90201FEF7B4F8D7
:1021A00041EC100B10F0DCFC51EC100BFEF748FD7D
:1021B000BBF80630F1888046A3F5617320E6FFF78F
:1021C000C7F800BF00000000000000000000000091
:1021D0002DE9F0472DED028BDFF84C814B4ED8F8FE
:1021E00000304B4F82B0002420460193347002F03F
:1021F0005FF8204602F044F8204601F0F9FF20463F
:1022000001F0DEFF4FF47A7007F052F806F018F98B
:1022100033783880002B60D13E4CDFF810919FED71
:102220003E8ADFED3E8A0EE06FF0C70001F0E0FF6E
:10223000C82001F0C5FF05F10A01284607F078F82B
:102240003378002B49D1202383F3118807F068FBF2
:1022500006F0F6FAA56A06F013FB07F079FB23688F
:10226000A34207D0A2699B6892689A4202D248466C
:1022700006F046FA4FF0000A8AF3118801F0E8FFF1
:102280000028C8BF404207EE900AF8EEE77AF4EE65
:10229000C87AF1EE10FA0DD501F0C2FF0028B8BFE0
:1022A000404207EE900AF8EEE77AF4EEE87AF1EEB3
:1022B00010FA1CDC01F0B4FF01308307B4D101F047
:1022C000AFFF824606F0BCF81AF1010348BF0AF1DD
:1022D00004039B1027F81300A6E7019AD8F80030F2
:1022E0009A4211D102B0BDEC028BBDE8F087504696
:1022F00001F07EFF504601F063FF012308490948C1
:102300003370FFF735FA96E7FFF722F83422002002
:10231000781F0020906500205B9CA1C45B9CA144B9
:1023200080820108B4730020000800201081010899
:102330002DE9F0472DED028B4C4F4D4E3B68DFF8F9
:10234000409182B0002441F658300193347006F079
:10235000AFFF06F075F8A9F80000204601F0A8FFCD
:10236000204601F08DFF3378002B6AD1414CDFF815
:1023700014819FED418ADFED418A0EE06FF0C700C6
:1023800001F036FFC82001F01BFF05F10A012846C5
:1023900006F0CEFF3378002B53D1202383F311882E
:1023A00007F0BEFA06F04CFAA56A06F069FA07F0E3
:1023B000CFFA2368A34207D0A2699B6892689A4229
:1023C00002D2404606F09CF94FF0000A8AF31188C9
:1023D00001F03EFF0028C8BF404207EE900AF8EE29
:1023E000E77AF4EEC87AF1EE10FA0DD501F018FF95
:1023F0000028B8BF404207EE900AF8EEE77AF4EE04
:10240000E87AF1EE10FA25DC01F00AFF8307B5D176
:1024100001F006FF40F20D539842AFDC01F000FFDF
:102420000028ABD001F0FCFE824606F009F8BAF1B4
:10243000000FB8BF0AF1030A4FEAAA0A29F81A00E6
:102440009CE7019A3B689A420DD102B0BDEC028B29
:10245000BDE8F087504601F0CBFE504601F0B0FEDB
:102460000123337091E7FEF773FF00BF00080020DF
:1024700034220020906500205B9CA1C45B9CA14499
:10248000F01C002010810108000000000000000086
:1024900030B5394A394B926939491B68916183B02B
:1024A000019302E0642006F003FF01F091FF002891
:1024B000F8D0344DFFF78CFEFFF73AFFFFF7C0F975
:1024C000FFF7AEFA30493148FFF752F92B78002B6D
:1024D00042D0FFF7FDFAFFF783FB2B78012B3FD9A2
:1024E000002426E001F01CFB002319460A220120EB
:1024F00001F016FB002319460A22022001F010FB0E
:10250000002319460A22032001F00AFB4FF47A70D7
:1025100006F0CEFE01F01CFB322006F0C9FE4FF49F
:102520007A7006F0C5FE2B780134E4B2013B9C4280
:1025300016DA2046FFF714FC40F6B83006F0B8FE75
:10254000FFF7FEF80023052819464FF00A02184647
:10255000C8D100F0DDFCE2E70D490C48FFF708F9AF
:102560000C4D0A4C29462046FFF702F94FF47A70C9
:1025700006F09EFEF6E700BF9065002000080020F0
:10258000F080010800220020B0800108B473002010
:10259000C8800108DC800108000000000000000085
:1025A00000B5094B83B01A680192401A019A1B6862
:1025B0000028B8BF40429A4203D180B203B05DF810
:1025C00004FBFEF7C5FE00BF00080020000000006D
:1025D00000B50C4B9FED0C7A1A689FED0C0A83B086
:1025E00007EE900A0192F8EEE77A019A1B6867EE0F
:1025F000877A9A4287EE800A02D103B05DF804FB25
:10260000FEF7A6FE00080020DB0FC9405B9CA1443A
:1026100000B50A4BDFED0A7A1A689FED0A7A83B09B
:1026200020EE270A0192019A1B689A4280EE070A5F
:1026300002D103B05DF804FBFEF78AFE000800201B
:102640005B9CA144DB0FC9400000000000000000BB
:1026500010B50A4A0A4C136882B0019301991268B6
:102660004FF47A7303FB00F0A4FB00309142C0F3F7
:10267000CF1001D102B010BDFEF76AFE00080020A5
:10268000FDC00FFC00000000000000000000000082
:1026900000B5094B83B01A680192884200D306D86E
:1026A000019A1B689A4204D103B05DF804FB084606
:1026B000F6E7FEF74DFE00BF000800200000000016
:1026C00030B5104D81682B680F4A83B001930B68B9
:1026D00023F001030B608168946A03E0936A1B1B7B
:1026E000C72B09D8086810F00100F7D1019A2B68B0
:1026F0009A4204D103B030BD4FF0FF30F6E7FEF749
:1027000027FE00BF000800209065002000000000A8
:1027100030B5184D83B02B68019311F00C0F0446AF
:102720000AD00378032B13D00622636822709A68BC
:102730001AB100212046904763685B688BB101990C
:102740002A68914213D1204603B0BDE830401847B3
:10275000FFF7B6FF0622636822709A68002AE8D164
:10276000EBE7019A2B689A4201D103B030BDFEF726
:10277000EFFD00BF00080020000000000000000086
:10278000F0B5284D83B02B68019307F091F806F05F
:10279000D7F8254B1E69F20715D55A69234C42F02C
:1027A00001025A612778BB1F012B2AD905226368D1
:1027B00022701B680BB120469847042F27D0022FA8
:1027C00025D003232370B30710D5174A174C53693C
:1027D00043F0020353612378032B1DD063689B6889
:1027E0000622227013B101211048984706F0D0F854
:1027F000019A2B689A4213D103B0BDE8F04008F06B
:102800005FB8019A2B689A420AD103B0F0BD022347
:102810002370B307EAD5D8E72046FFF751FFDDE77D
:10282000FEF796FD0008002000000550B0330020A0
:1028300030B50B4D0B4C2B6883B02046019300F054
:102840002FF9019A2B680848084D094921619A42DD
:10285000C4E9025001D103B030BDFEF779FD00BFDD
:1028600000080020B03300205C93010800000550F0
:1028700016550202000000000000000000000000E9
:102880002DE9F0412F4C0578266882B0012D019684
:1028900006D0019A23689A4252D102B0BDE8F08175
:1028A000294DA842F5D10E4690461F46274AE868B2
:1028B0002B460C210BF04CFA002839D1D5E9023215
:1028C000126828339360EB681A68042151611B6811
:1028D000C3F80C80EB681A6817611B68B6085E6065
:1028E0002B694FB343F480232B61E968184A0968C8
:1028F0000B60EB6819680B6843F001030B60536BC6
:1029000043F0010353630B214E200AF001FFD5E988
:102910000113DA6842F00102DA60DA6842F002027A
:10292000DA60CA6822F4804222F001021A60B0E73D
:10293000084805F0E5FEC1E723F480232B61D4E7C6
:10294000FEF706FD00080020B03300201127000824
:1029500000380240A08201080000000000000000D2
:1029600030B5184C0378226883B0022B019205D051
:10297000019A23689A4223D103B030BD124B98428A
:102980000546F5D18168114A0B6823F4804323F092
:1029900001030B608168CB6823F00F03CB60536B9E
:1029A00023F0010353634E200AF0DAFE019A2368F4
:1029B0009A4205D1E86803B0BDE830400BF030BA68
:1029C000FEF7C6FC00080020B033002000380240AB
:1029D00000B50F4B0278196883B0022A01910ED11D
:1029E00081680A6842F002020A6081680A6842F45B
:1029F00080420A6081680A6842F001020A60019A16
:102A00001B689A4202D103B05DF804FBFEF7A0FCFC
:102A1000000800200000000000000000000000008E
:102A200000B50F4B0278196883B0022A01910ED1CC
:102A300081680A6822F002020A6081680A6842F42A
:102A400080420A6081680A6842F001020A60019AC5
:102A50001B689A4202D103B05DF804FBFEF778FCD4
:102A6000000800200000000000000000000000003E
:102A700000B5074B83B01A680192019A1B689A420D
:102A800004D103B05DF804EBFFF7D2BEFEF760FCA3
:102A9000000800200000000000000000000000000E
:102AA00000B5084B83B01A68019201220270019AA6
:102AB0001B6800219A42416002D103B05DF804FB1B
:102AC000FEF746FC000800200000000000000000A7
:102AD0002DE9F043254D83B02C680194DDF8289052
:102AE0000F4616469846044618B111B1204B9A423B
:102AF0002FD9204805F004FE202383F3118806F027
:102B00000FFF05F09DFE2378012B02D0194805F038
:102B1000F7FD4246314620464B466760FFF7B0FE60
:102B20000223237005F0ACFE06F012FF124B1A6868
:102B30009A4204D0996993688A689A420FD3002315
:102B400083F31188019A2B689A420CD103B0BDE837
:102B5000F0839307CDD1B8F1000FCDD1C9E7074875
:102B600005F0CEFDEBE7FEF7F3FB00BF0008002009
:102B7000FCFF0300D082010890650020C08201089C
:102B800030B51C4D83B02B680193044658B3202305
:102B900083F3118806F0C4FE05F052FE2378022B61
:102BA00002D0154805F0ACFD2046FFF7D9FE012301
:102BB000237005F065FE06F0CBFE104B1A689A42B2
:102BC00004D0996993688A689A4208D3002383F3F2
:102BD0001188019A2B689A4209D103B030BD084888
:102BE00005F08EFDF2E7044805F08AFDCFE7FEF719
:102BF000AFFB00BF00080020E082010890650020C4
:102C0000C082010800000000000000000000000079
:102C100030B51C4D83B02B680193044658B3202374
:102C200083F3118806F07CFE05F00AFE2378022B60
:102C300002D0154805F064FD2046FFF7C9FE0423C5
:102C4000237005F01DFE06F083FE104B1A689A42B1
:102C500004D0996993688A689A4208D3002383F361
:102C60001188019A2B689A4209D103B030BD0848F7
:102C700005F046FDF2E7044805F042FDCFE7FEF718
:102C800067FB00BF00080020F0820108906500206B
:102C9000C0820108000000000000000000000000E9
:102CA00030B51C4D83B02B680193044658B32023E4
:102CB00083F3118806F034FE05F0C2FD2378022B61
:102CC00002D0154805F01CFD2046FFF7A9FE03239E
:102CD000237005F0D5FD06F03BFE104B1A689A42B2
:102CE00004D0996993688A689A4208D3002383F3D1
:102CF0001188019A2B689A4209D103B030BD084867
:102D000005F0FEFCF2E7044805F0FAFCCFE7FEF719
:102D10001FFB00BF00080020108301089065002001
:102D2000C082010800000000000000000000000058
:102D300000B5084B83B01A680192019A1B689A4249
:102D400005D1054803B05DF804EB05F0D9BCFEF7EA
:102D5000FFFA00BF000800202083010800000000E7
:102D600070B51849184C0A78236882B001934FF463
:102D7000B47303FB00F562B1019A23689A421FD134
:102D800012481349B1FBF5F102B0BDE8704008F0FC
:102D9000FFB91048104A01260E70802141830F4967
:102DA0000F4808F0BDF8019A23689A4208D10748F5
:102DB0000749B1FBF5F102B0BDE8704008F050BA28
:102DC000FEF7C6FAE8330020000800203473002024
:102DD00000BD0105000C024030830108D8330020FB
:102DE000E06F002000000000000000000000000074
:102DF00010B50C4C0C4B22680C4882B0019280221A
:102E00001A8308F08DFA0A4808F0CAF8019A236874
:102E1000084900209A42087001D102B010BDFEF7A7
:102E200097FA00BF00080020000C02403473002015
:102E3000E06F0020E83300200000000000000000E8
:102E400070B5154D154A164B2968164E9E6082B016
:102E500000244FF4006010800191947011461248D4
:102E60005C6001221A60DC6007F0DAFF0F4B104E45
:102E700010485C60202219469A60DC601E6008F0F1
:102E80003FF9019A2B689A4204D102B0BDE8704024
:102E9000FFF7AEBFFEF75CFA00080020D433002035
:102EA000D8330020312D0008E06F0020C43300200B
:102EB00000BD010534730020000000000000000088
:102EC00030B50F4C83B0236801930D4608B1FFF76E
:102ED00047FF4FF47A700B4900FB05F000F2E73032
:102EE000A1FB0030800906F0E3F9019A23689A42B9
:102EF00004D103B0BDE83040FFF77ABFFEF728FAEF
:102F000000080020D34D6210000000000000000007
:102F100030B52F4D83B02B68019303240022114656
:102F200010460A2300F0FCFD002211460A2301206E
:102F300000F0F6FD002211460A23022000F0F0FD09
:102F4000002211460A23032000F0EAFD02210A2094
:102F500000F08EFD4FF4FA714FF4DC70FFF7B0FF14
:102F60000A2006F0A5F900231A4618460A2100F0A7
:102F7000D7FD00231A460A21012000F0D1FD0023CD
:102F80001A460A21022000F0CBFD00231A460A212E
:102F9000032000F0C5FD02210A2000F069FD4FF476
:102FA000FA714FF4F770FFF78BFF0A2006F080F9F3
:102FB000631E13F0FF04B1D1019A2B689A4204D129
:102FC00003B0BDE8304000F0C3BDFEF7C1F900BF5B
:102FD00000080020000000000000000000000000C9
:102FE00000B5074B07491A68087083B00192019A2F
:102FF0001B689A4202D103B05DF804FBFEF7A8F902
:1030000000080020E933002000000000000000005C
:1030100000B5064B83B01A680192019A1B689A4268
:1030200002D103B05DF804FBFEF792F9000800201E
:1030300000B5064B83B01A680192019A1B689A4248
:1030400002D103B05DF804FBFEF782F9000800200E
:1030500010B5104C104B226882B0019201221A70F8
:10306000202383F3118806F08BFC05F029FC0B4824
:1030700006F08EFF05F044FC06F09AFC002383F373
:103080001188019A23689A4201D102B010BDFEF75F
:103090005FF900BF00080020F83300203C08002042
:1030A00030B50E4D0E4C2B6883B00193FFF7E0FC5A
:1030B000206808B111F0A4FA4FF4964011F098FA84
:1030C00001992A682060B0FA80F35B099142C3F14C
:1030D000000001D103B030BDFEF73AF9000800202E
:1030E000F03300200000000000000000000000009D
:1030F00030B5174D174C2B78226885B0012B039201
:1031000020D000F0D5FB144B1B78ABB9B0F5964F2F
:1031100015D8124A124B12681B68124900920246D7
:103120001148FFF7D5FC01232B700020039A236878
:103130009A420BD105B030BDB0F5165FE9D94FF01A
:10314000FF30F3E70848FFF71BFDDAE7FEF700F969
:10315000EB33002000080020EC330020F433002083
:10316000F033002000860108B0330020000000008A
:1031700010B50B4C0B48236882B0019306F0D0FDCC
:10318000094806F0ADFF019A23689A4205D1054827
:1031900002B0BDE8104006F0FBBDFEF7D9F800BF55
:1031A00000080020440800203C0800200000000027
:1031B00030B5154D154C164B2268286883B0019226
:1031C00001221A7008B111F01BFA4FF4165011F0D9
:1031D0000FFA286098B10F4D286808B111F010FA65
:1031E0004FF4165011F004FAB0FA80F35B0928602E
:1031F0005842019A23689A4204D103B030BD4FF07F
:10320000FF30F6E7FEF7A4F8F033002000080020B6
:10321000EC330020F4330020000000000000000028
:1032200000B5074B07491A68087083B00192019AEC
:103230001B689A4202D103B05DF804FBFEF788F8E0
:1032400000080020EA330020000000000000000019
:1032500000B50D4A0D4B1278196883B0019142B147
:103260000B4AD26812681268120302D4094A106825
:1032700001E0094A1068019A1B689A4202D103B022
:103280005DF804FBFEF764F8EC3300200008002032
:10329000B0330020F4330020F033002000000000A1
:1032A00000B50E4A0E4B1278196883B001914AB1ED
:1032B000019A1B689A420FD10A4803B05DF804EBEB
:1032C000FFF7EEBC019A1B689A4205D1054803B08E
:1032D0005DF804EBFFF79CBCFEF73AF8EA330020F8
:1032E00000080020B03300200000000000000000B3
:1032F00070B5274D82B02B68019306460122032149
:103300006E2000F065FB044630B1019A2B689A42AA
:1033100020463AD102B070BD32464E216E2000F0F8
:1033200057FB04460028F0D1442E07D00246B721AF
:103330006E2000F04DFBB8B10446E6E70122B7214C
:103340006E2000F045FB0028F6D1224603216E20B6
:1033500000F03EFB0028EFD1032211216E2000F087
:1033600037FB78B10446D0E7224603216E2000F0F7
:103370002FFB0028E0D10A2211216E2000F028FB4B
:103380000028D9D1034B1E71BFE7FDF7E1FF00BF55
:1033900000080020FC3300200000000000000000B6
:1033A0002DE9F04F8FB0DFF80084DDF860C0D8F869
:1033B00000400D940CF1FF355C1EB3F5207F9DF8A5
:1033C00064909DF868B00C44154400F21282BCF57C
:1033D000F07F00F20E82B1F5207F0E4600F21282DD
:1033E000B2F5F07F174600F21082A14280F004820D
:1033F000B4F5207F00F20082AA4280F00082B5F589
:10340000F07F00F2FC81B9F1400F824600F0B081FC
:10341000B9F1800F23D0B9F1200F00F09C81002377
:10342000CDE90033BBF1400F2FD0BBF1800F00F08E
:10343000CB81BBF1200F00F0B9810023CDE902332D
:10344000002203216E2000F0C3FAA0B30D9AD8F831
:1034500000309A4240F0E2810FB0BDE8F08F9A0749
:1034600040F0D681CC4A8C085900661CA2FB0101B1
:10347000A2FB030204EB930406EBD2030093BBF11F
:10348000400F06EBD1030193CFD11CF0010F40F0A8
:10349000C281C14B7D084FEA4C026F1CA3FB021294
:1034A000A3FB0C1307EB9303029307EB920305EBCB
:1034B0005C050393C4E702465B216E2000F088FAA6
:1034C0000028C3D15046FFF713FF0028BED10246A3
:1034D00003216E2000F07CFA0028B7D1C6F3072341
:1034E0001A4608216E20049300F072FA0028ADD12C
:1034F000F3B21A4609216E20059300F069FA0028FC
:10350000A4D1C7F307231A460A216E20069300F0C0
:103510005FFA00289AD1FBB21A460B216E2007935E
:1035200000F056FA002891D1C4F307231A460C2163
:103530006E20089300F04CFA002887D1E3B21A46B7
:103540000D216E20099300F043FA00287FF47EAF2E
:10355000C5F307231A460E216E200A9300F038FAAD
:1035600000287FF473AFEBB21A460F216E200B9345
:1035700000F02EFA00287FF469AF049A35216E20FE
:1035800000F026FA00287FF461AF059A36216E20FC
:1035900000F01EFA00287FF459AF089A37216E20F8
:1035A00000F016FA00287FF451AF099A38216E20F6
:1035B00000F00EFA00287FF449AF069A39216E20F8
:1035C00000F006FA00287FF441AF079A3A216E20F6
:1035D00000F0FEF900287FF439AF0A9A3B216E20F3
:1035E00000F0F6F900287FF431AF0B9A3C216E20F1
:1035F00000F0EEF900287FF429AF009B3D21C3F3D2
:1036000007226E2000F0E4F900287FF41FAF9DF838
:1036100000203E216E2000F0DBF900287FF416AF79
:10362000019B3F21C3F307226E2000F0D1F900284F
:103630007FF40CAF9DF8042040216E2000F0C8F903
:1036400000287FF403AF029B4121C3F307226E20C1
:1036500000F0BEF900287FF4F9AE9DF80820422161
:103660006E2000F0B5F900287FF4F0AE039B4321F3
:10367000C3F307226E2000F0ABF900287FF4E6AE1A
:103680009DF80C2044216E2000F0A2F900287FF460
:10369000DDAE012203216E2000F09AF900287FF4AC
:1036A000D5AE4A4693216E2000F092F900287FF4AF
:1036B000CDAE5A4694216E2000F08AF900287FF49E
:1036C000C5AE012203216E2000F082F900287FF4AC
:1036D000BDAE0134A31B07EE103ADFED307AB8EE31
:1036E000477ABAF1440F77EEC77A00F09980B0EECE
:1036F000006AF2EE006AE7EE066A77EEA77AB0EEAD
:10370000667A67EE877ADFED266A87EEA67AFCEEA8
:10371000C77ACDED007A009B9521C3F307226E2076
:1037200000F056F900287FF491AE9DF80020962114
:103730006E2000F04DF900287FF488AE194B01355A
:10374000EF1BA41B5F801C8083F804A083F8059006
:1037500083F806B07AE610495A00A1FB030306EB92
:103760005303A1FB0212009306EB5203019359E6A7
:10377000D9074DD4084A74085900661CA2FB010100
:10378000A2FB030204EB530406EB9203009306EB47
:103790009103019346E600BFABAAAAAA0000224407
:1037A0000000A344FC33002000080020244A4FEA14
:1037B0004C03A2FB0C1CA2FB032307EB530307EBF8
:1037C0005C02029203933BE61CF0030F23D11C4BD7
:1037D000BD084FEA4C026F1CA3FB0212A3FB0C13A3
:1037E00007EBD303029307EBD20305EB9C0503938E
:1037F00026E66FF0070029E66FF0030026E66FF07B
:10380000040023E66FF0010020E66FF002001DE6E1
:103810006FF005001AE66FF0060017E6FDF798FD59
:10382000F2EE006A37EE267ADFED066A67EE277A57
:1038300087EEA67AFCEEC77ACDED007A6BE700BF83
:10384000ABAAAAAA00002444000000000000000067
:1038500010B5114C86B02368059300F081F80F492C
:103860000F4807F07DFF012200210D4808F010F8F5
:1038700020237822CDE901330092A023B422F02145
:103880000220FFF78DFD059A23689A4201D106B008
:1038900010BDFDF75DFD00BF000800201086010887
:1038A00098730020000000000000000000000000ED
:1038B00010B50A4B0A4A1988146858881B7982B0D7
:1038C000442B019400FB01F00199136818BF4000DC
:1038D000994201D102B010BDFDF73AFDFC33002042
:1038E00000080020000000000000000000000000B0
:1038F00070B5164E16483368154D82B005224FF448
:10390000807101930CF0FCF920246B6983F48073BF
:103910006B61012005F0CCFC631E13F0FF04F4D1B1
:103920004FF4807140F20622298309480CF0E8F92F
:10393000019A33689A4206D10649074802B0BDE8A9
:10394000704007F055BDFDF703FD00BF00080020E3
:1039500000040240508601081070002000000000A2
:1039600000B50C4A0C4B1278196883B0012A0191FA
:10397000019A1B6804D09A4209D103B05DF804FB98
:103980009A4204D103B05DF804EBFFF7B1BFFDF735
:10399000DFFC00BF107000200008002000000000C5
:1039A00000B5084B83B01A680192019A1B689A42CD
:1039B00005D1054803B05DF804EB07F061BDFDF7E4
:1039C000C7FC00BF000800201070002000000000AD
:1039D000F0B5214C214E89B0336807930746002586
:1039E00020468DF818108DF819208DF8145007F026
:1039F00017FE2378012B0CD0042205AB019502920F
:103A000000933946022306AA204607F099FD054691
:103A100048B9114807F024FE0020079A33689A42FB
:103A200017D109B0F0BD204607F072FD23780C4A8B
:103A3000052B106004D0084807F012FE68B2ECE7CE
:103A4000204607F01DFD2378012BF4D1FFF750FF2E
:103A5000F1E7FDF77DFC00BF10700020000800209A
:103A600004340020000000000000000000000000FE
:103A700070B5294D82B02B6801930E46032841D8BA
:103A8000DFE800F01A120A02012922D9234A5369F9
:103A900083F40063536116E0012926D91F4A536954
:103AA00083F4806353610EE0012918D91B4A5369DE
:103AB00083F04003536106E001291CD9174A53697A
:103AC00083F020035361019A2B689A4218D102B007
:103AD00070BD124B4FF4006229B15A83F3E70F4BCC
:103AE00040220029F9D11A83EDE70C4B4FF4806294
:103AF0000029F8D0F1E7094B20220029F3D0ECE7A8
:103B0000FDF726FC0024E0B231460134FFF7B0FF98
:103B1000042CF8D1D7E700BF00080020000C0240B9
:103B200070B5094D094E2C6882B000EB400001943D
:103B3000315434180198296862708842A37001D109
:103B400002B070BDFDF704FC00080020083400201E
:103B5000F0B50D4F0D4C3B6883B0002501932E4608
:103B6000E8B200210135FFF783FF042D267066704F
:103B7000A67004F10304F3D1019A3B689A4201D183
:103B800003B0F0BDFDF7E4FB00080020083400207E
:103B900030B5094B094D044607CB83B02B68019320
:103BA000206001982B6861609842A26001D103B047
:103BB00030BDFDF7CDFB00BF083400200008002019
:103BC0002DE9F043254E83B034680194042A9DF812
:103BD0002890144605460F46984639D9B9F1000F8A
:103BE00014BF00224FF08052640002EB0863013CD6
:103BF0001C4405F00F0527F01F07202383F31188CD
:103C000005F08EFE3D4304F01BFE154B1035DD60C4
:103C10001C6104F035FE05F09BFE124B1A689A42B7
:103C200004D0996993688A689A420DD3002383F37C
:103C30001188BFF36F8FBFF34F8F019A33689A4299
:103C40000AD103B0BDE8F083074804F059FDEDE761
:103C5000064804F055FDC1E7FDF77AFB0008002097
:103C600090ED00E090650020E0860108C086010824
:103C700030B5224D224C2B68224A85B003936368ED
:103C800043F004036360536A43F480335362202398
:103C900083F3118805F044FE04F0D2FD17221A4B7D
:103CA000E260236104F0ECFD05F052FE174B1A6848
:103CB0009A4204D0996993688A689A4218D300207E
:103CC00080F31188BFF36F8FBFF34F8F03231D2243
:103CD00000904FF00051FFF773FF094A536843F01B
:103CE00001035360039A2B689A4205D105B030BD99
:103CF000074804F005FDE2E7FDF72AFB0008002075
:103D000090ED00E000ED00E009000010906500205B
:103D1000E086010800000000000000000000000034
:103D200070B51A4D1A4C1B4E0FCD0FC49EB02A68A9
:103D3000336822801D93EFF30981682203A8FDF701
:103D400077F9154B9D6AAA0714D4EB0708D5124BD7
:103D500008995B6B114A00910D48802110F068FFB3
:103D60001D9A33689A420FD109481EB0BDE87040D1
:103D700004F0C6BC099A5B6B0092A4F11000084ADB
:103D8000802110F055FFE0E7FDF7E2FAA486010874
:103D9000143400200008002000ED00E080860108B7
:103DA0006086010800000000000000000000000024
:103DB00000B51F4B0278196883B00191E2B11D4A2A
:103DC0004FF4005111834278EAB11A4A4FF48051FE
:103DD00011838278F2B1174A4FF480411183C2787F
:103DE000FAB9144A4FF400415183019A1B689A4270
:103DF0001CD103B05DF804FB0E4A4FF4005151830F
:103E00004278002AE1D10B4A4FF4805151838278E5
:103E1000002AE0D1074A4FF480415183C278002A3A
:103E2000DFD0044A4FF400411183DEE7FDF790FA3A
:103E30000008002000100240000000000000000008
:103E400000B51F4B0278196883B00191E2B11D4A99
:103E50004FF4007111834278EAB11A4A4FF480712D
:103E600011838278F2B1174A4FF400611183C2784E
:103E7000FAB9144A4FF480615183019A1B689A423F
:103E80001CD103B05DF804FB0E4A4FF4007151835E
:103E90004278002AE1D10B4A4FF480715183827835
:103EA000002AE0D1074A4FF400615183C278002A0A
:103EB000DFD0044A4FF480611183DEE7FDF748FA52
:103EC0000008002000100240000000000000000078
:103ED00030B50C4A0C4B116883B04FF4005501917A
:103EE0004FF480544FF400414FF480405D835C8375
:103EF0005883598301991368994201D103B030BDA9
:103F0000FDF726FA00080020001002400000000023
:103F100030B50C4A0C4B116883B04FF40075019119
:103F20004FF480744FF480614FF400605D835C83D4
:103F30005883598301991368994201D103B030BD68
:103F4000FDF706FA00080020001002400000000003
:103F500010B50B4C0B48236882B0992200210193C5
:103F600007F096FC019A23689A4206D10548002181
:103F700002B0BDE8104007F073BDFDF7E9F900BFDE
:103F80000008002060730020000000000000000016
:103F900010B50B4C0B48236882B099220021019385
:103FA00007F076FC019A23689A4206D10548002161
:103FB00002B0BDE8104007F053BDFDF7C9F900BFDE
:103FC000000800207C7300200000000000000000BA
:103FD00000B5084B83B01A680192019A1B689A4297
:103FE00006D10548002103B05DF804EB07F0A0BC42
:103FF000FDF7AEF90008002060730020000000000B
:1040000000B5084B83B01A680192019A1B689A4266
:1040100006D10548002103B05DF804EB07F088BC29
:10402000FDF796F9000800207C73002000000000D6
:1040300070B51A4C1A4E2378326882B0022B019266
:10404000A26811D165781748013505F0070500EB26
:104050008500904763686570013B6360019A33682F
:104060009A4219D102B070BD012B08D00199336872
:10407000994211D10C4802B0BDE8704010476578F4
:104080000848013D05F0070500EB8500904763688F
:10409000657001336360E1E7FDF75AF9AC34002045
:1040A00000080020808701087087010800000000D8
:1040B00070B51A4C1A4E2378326882B0012B0192E7
:1040C000A26811D165781748013505F0070500EBA6
:1040D000850090476368657001336360019A3368B7
:1040E0009A4219D102B070BD022B08D001993368F1
:1040F000994211D10C4802B0BDE870401047657874
:104100000848013D05F0070500EB8500904763680E
:104110006570013B6360E1E7FDF71AF99434002014
:104120000008002080870108708701080000000057
:1041300030B51F4D85B02B68039340F24C43994234
:10414000044626DCA3F69803994211DB4B00002BB2
:1041500029D10370036998474FF47A71039A2B6849
:104160009A421ED1606905B0BDE8304007F048BBF7
:10417000104B02225B42227040F2892293420E4988
:1041800091FBF3F189B207DC0191E368984701994B
:10419000E4E7012303702D210191236998470199D8
:1041A000DCE7FDF7D5F8E4DD01220270E4E700BFAB
:1041B0000008002068F7FFFFA08601000000000053
:1041C00000B5084B83B01A680192019A1B689A42A5
:1041D00006D10146044803B05DF804EBFFF7A8BF21
:1041E000FDF7B6F80008002094340020000000001D
:1041F00000B5084B83B01A680192019A1B689A4275
:1042000006D10146044803B05DF804EBFFF790BF08
:10421000FDF79EF800080020AC34002000000000EC
:1042200000B5094B094A1968506883B000EBD0709B
:104230000191019A1B689A4203D1401003B05DF8C6
:1042400004FBFDF785F800BF00080020943400202F
:1042500000B5094B094A1968506883B000EBD0706B
:104260000191019A1B689A4203D1401003B05DF896
:1042700004FBFDF76DF800BF00080020AC340020FF
:1042800000B5084B08491A6883B040000192019AB2
:104290001B6848609A4202D103B05DF804FBFDF749
:1042A00057F800BF000800209434002000000000F0
:1042B00000B5084B08491A6883B040000192019A82
:1042C0001B6848609A4202D103B05DF804FBFDF719
:1042D0003FF800BF00080020AC34002000000000C0
:1042E00070B51D4E1D4A1E4B30681E491E4C916014
:1042F00082B00021D46001901C4C1D481D4D9D6072
:10430000117051705160106154611B481B4A1C4D63
:10431000D8601C48197059705960C3E90425FFF72B
:1043200047FD1848FFF78CFD1749204607F018FA9B
:10433000204607F04DFB2846144907F011FA019A70
:1043400033689A4205D1284602B0BDE8704007F0B4
:104350003FBBFCF7FDFF00BF00080020AC3400208D
:1043600094340020B13D0008513F000860730020E4
:10437000D13F0008413E0008913F0008014000087D
:104380007C7300207087010830870108F0860108DF
:104390000A490B4B09680B4A82B020200191402149
:1043A00058834FF4806559834FF400644FF4804084
:1043B00004215D835C8358835183FEE7000800205D
:1043C000000C024000040240000000000000000059
:1043D00030B5104C104B2268104983B00192186917
:1043E0001A6909691B69019D2468C2F3C032C1F3CF
:1043F000001102EB4102C3F38033C0F3403003EB02
:104400004203A54200EB430001D103B030BDFCF7ED
:104410009FFF00BF0008002000080240000C02407F
:1044200010B51E491E4A0B78106882B0013B0190FE
:10443000072B0AD8DFE803F012151C1F26290F04EA
:1044400018480824012304830B70019913689942CA
:1044500021D102B010BD08230B70F6E702230B70C8
:10446000F3E711484FF48054032304830B70ECE707
:1044700004230B70E9E70C484FF4804405230483C0
:104480000B70E2E706230B70DFE7064804240723DE
:1044900004830B70D9E7FCF75BFF00BF40380020B6
:1044A000000800200010024000040240000000004C
:1044B00030B50C4B0C4918680C4A83B04FF480455A
:1044C00001904FF480504883042408204D83548386
:1044D0005083019A1B689A4201D103B030BDFCF7AA
:1044E00037FF00BF00080020000402400010024017
:1044F0002DE9F04F4E4B4F4A9B694F499961A5B04A
:1045000007AE05AD80231768009331462A46002484
:104510000CA84A4B2397CDE90766CDE90555CDE9AF
:1045200009440B9403F0BCFF0CA9454A4548434C91
:10453000454DDFF83481DFF834B1DFF834A103F002
:10454000D7FF04F11C0604F16007A146504605F0B0
:1045500087FA2A682B69226063602A6A2B6BA26043
:10456000E3606A686B69226163616A6A6B6BA2616E
:10457000E361AA68AB6922626362AA6AAB6BA2625A
:10458000E362EA68EB6922636363EA6AEB6B2F49D3
:10459000A263E36351F8043F0A6AB142A3EB02034A
:1045A0000B64F7D1802249460CA803F0D1FF98F89C
:1045B0000030002BCAD09BF8003033B3012BC5D19B
:1045C000DFF8B0C02248614650F8042B51F8043F90
:1045D000B84213440B60F7D11E4A13780133DBB2A3
:1045E000642B1370B2D11C495CF8043F1B4A82FB58
:1045F0000302DB17C3EB621341F8043B184B9C45E5
:10460000F2D1002388F80030A0E719462022124892
:10461000039310F0BDFA039B12481946202210F0B4
:10462000B7FA0C49039B0B7001228BF800208DE731
:104630009065002000080020A08701084835002070
:10464000E0870108E01C0020E4340020443500200D
:104650008835002025350020A83500201F85EB5126
:104660004435002028350020243500202635002040
:104670005808002024350020000000000000000041
:1046800070B502691E4D52882B6882B006460C46F2
:104690001C4801939200002110F07AFA33695B887C
:1046A0005BB1184AA11E002331F8020F42F8040B37
:1046B0003069408801339842F6D8202383F311886B
:1046C00005F05EF904F0FCF804F08AF90E488368FE
:1046D000002B0FDD04F014F905F06AF9002383F3D1
:1046E0001188019A2B68094901209A42087004D167
:1046F00002B070BD05F0ECF9ECE7FCF729FE00BF55
:1047000000080020E4340020580800204038002031
:1047100070B51F4D1F4C2E78236884B0012E039373
:1047200005D0039A23689A422FD104B070BD0021AE
:10473000284606F01DFA284606F0DAFA33462846DF
:10474000154A164906F094FA1549164807F008F874
:104750004FF496720021134807F09AF8002111488F
:1047600007F07EF90F4807F033F931464FF48272B3
:104770000C4807F08DF80023009340220A4B0B48A9
:104780004FF41E7104F03CFDCBE7FCF7E1FD00BFE8
:10479000EC6C002000080020C4340020B087010821
:1047A000F087010844730020F1440008C835002058
:1047B00030B50C4D0C4A2B680C4C83B00021019392
:1047C000012311702370142004F072FD2378002B54
:1047D000F9D1019A2B689A4201D103B030BDFCF7A0
:1047E000B7FD00BF0008002026350020243500203A
:1047F00010B50E4A82B013680193072811D80C49EE
:1048000000F1180300F1100451F8233051F824008E
:10481000C01A20EAE07001991368994203D102B0EE
:1048200010BD0020F7E7FCF793FD00BF0008002053
:1048300048350020000000000000000000000000DB
:1048400080B5164A164B9269164E17491B68DFF859
:104850006480164D164C916182B03746019328460C
:10486000FFF796F9204608F02BFA3B462A460C2122
:10487000204608F0A5FA204608F062FA3078FEF7E4
:10488000AFFB98F80030033B012B4FF0140002D926
:1048900004F00EFDE3E7FEF76BFCE0E79065002017
:1048A000000800204438002040880108B84D00204E
:1048B000EC720020B0330020000000000000000077
:1048C00010B50C4C0C4923680C4884B0039308F0D5
:1048D000AFF9002300934122094B0A484FF4AF611E
:1048E00004F08EFC039A23689A4201D104B010BDF3
:1048F000FCF72EFD0008002030880108EC72002033
:10490000414800084048002000000000000000006E
:1049100000B50F4B83B01868019002290CD0032911
:104920000CD001290B4818BF0020019A1B689A423D
:104930000BD103B05DF804FB0748F6E7032A96BFE6
:104940000648002000EBC200EFE7FCF701FD00BFC6
:104950000008002030890108D0880108E08901089A
:1049600070B5154C82B02368019302291CD10D4605
:104970000646202383F3118805F002F803F0A0FF18
:1049800030460E4A012108F01BFB29460C4A3046EE
:1049900008F016FB0B4807F0EBFF03F0B1FF05F042
:1049A00007F8002383F31188019A23689A4201D102
:1049B00002B070BDFCF7CCFC000800205088010854
:1049C00080880108B45D00200000000000000000A5
:1049D00030B5134D134C2B68134883B0019307F087
:1049E0003FFF1249104807F06BFF226D936B23F4D1
:1049F000002393634FF47A7004F05AFC20460C496C
:104A000008F08EFA226D936B43F400239363019AAE
:104A10002B689A4201D103B030BDFCF799FC00BF6E
:104A20000008002050700020B45D0020B08801080C
:104A3000C088010800000000000000000000000025
:104A400000B5084B83B01A680192019A1B689A421C
:104A500005D1054803B05DF804EB05F061B9FCF73A
:104A600077FC00BF00080020640800200000000060
:104A700000B5084B83B01A680192019A1B689A42EC
:104A800005D1054803B05DF804EB05F081B9FCF7EA
:104A90005FFC00BF00080020640800200000000048
:104AA00070B50D4C82B0236801930D1E06460DDDD6
:104AB000284605F07DFE18B90C2333604FF0FF3017
:104AC000019A23689A4205D102B070BD034803F0F1
:104AD00017FEEDE7FCF73CFC00080020008A010807
:104AE00000B5064B83B01A680192019A1B689A427E
:104AF00002D103B05DF804FBFCF72AFC000800209B
:104B000000B5074B83B01A680192019A1B689A425C
:104B100004D103B05DF804EB05F002B9FCF718FC12
:104B2000000800200000000000000000000000005D
:104B300000B5074B83B01A680192019A1B689A422C
:104B400004D103B05DF804EB05F022B9FCF700FCDA
:104B5000000800200000000000000000000000002D
:104B600000B5074B83B01A680192019A1B689A42FC
:104B700004D103B05DF804EB05F032BAFCF7E8FBB2
:104B800000080020000000000000000000000000FD
:104B900000B5074B83B01A680192019A1B689A42CC
:104BA00004D103B05DF804EB03F03AB8FCF7D0FB96
:104BB00000080020000000000000000000000000CD
:104BC00010B50C4C82B02368019315290CD8012232
:104BD000094B8A4013403BB101740020019A2368BD
:104BE0009A4204D102B010BD6FF00700F6E7FCF75F
:104BF000AFFB00BF000800200B00300000000000E9
:104C000000B5074B83B01A680192019A1B689A425B
:104C100004D103B05DF804EB02F0CABAFCF798FBCC
:104C2000000800200000000000000000000000005C
:104C300010B5074B82B01C680194019C1B689C4214
:104C400004D102B0BDE8104002F072B9FCF780FB5D
:104C5000000800200000000000000000000000002C
:104C600010B5074B82B01C680194019C1B689C42E4
:104C700004D102B0BDE8104002F072BAFCF768FB44
:104C800000080020000000000000000000000000FC
:104C90002DE9F04182B002AB0024364D03F8054DFA
:104CA00090462A6801920F461A460121064603F0F3
:104CB000DFF90446E0B9B8F1010F9DF803301FD0C9
:104CC000042F53D8DFE807F0322D0328230003F028
:104CD000FB07BB420CD03A460121304603F068F98D
:104CE000044628B986F830717169304602F060FADE
:104CF000019A2B689A42204636D102B0BDE8F08175
:104D0000042F33D8DFE807F02B26211C170003F00F
:104D10007F07BB42DFD1EBE703F0BF07BB42DAD12D
:104D2000E6E703F0D707BB42D5D1E1E703F0EF0791
:104D3000BB42D0D1DCE743F08007BB42CBD1D7E701
:104D400043F04007BB42C6D1D2E743F00407BB4261
:104D5000C1D1CDE743F02807BB42BCD1C8E743F03F
:104D60001007BB42B7D1C3E7FCF7F2FA6FF00304B8
:104D7000BEE700BF000800200000000000000000A7
:104D800030B583B002AA114D002302F8053D0C4650
:104D90002B680193012103F06BF978B99DF803307A
:104DA000C3F30011C3F3C0022170A270C3F38001EA
:104DB000C3F38012DB096170E2702371019A2B68E2
:104DC0009A4201D103B030BDFCF7C2FA00080020BE
:104DD00070B5134C84B00E46236803930DF10602A0
:104DE000F821054603F05CF928B1039A23689A423A
:104DF00013D104B070BD02AA0421284603F068F95B
:104E00000028F2D1BDF8062012B93368AB61ECE797
:104E1000029BB3FBF2F33360F8E7FCF799FA00BFAB
:104E2000000800200000000000000000000000005A
:104E300000B5084B027F18680A7083B00190019A90
:104E40001B689A4203D1002003B05DF804FBFCF715
:104E50007FFA00BF000800200000000000000000F2
:104E600070B5104C82B00E46236801930DF102021A
:104E70002021054603F014F938B9BDF8023053B1CA
:104E8000DB00012233602B622A77019A23689A4261
:104E900005D102B070BD2B6A33602877F5E7FCF7C7
:104EA00057FA00BF000800200000000000000000CA
:104EB000F0B5294F83B03B680193052947D80E46CA
:104EC0000446154662B100EB81020023526B0120BB
:104ED000711E04292FD8DFE801F0252213063100C6
:104EE00010460123F4E75B00FE226021204603F018
:104EF0008FF870B9344445B9284684F8285008E042
:104F000084F82B003444002DF6D0012384F8283097
:104F10000020019A3B689A421CD103B0F0BD84F88E
:104F20002A00EFE7C2F34F224421204603F058F84D
:104F30000028DFD0EDE784F82800E3E71B01EF222B
:104F40006021204603F064F80028D3D0E1E76FF039
:104F50000300DEE7FCF7FCF9000800200000000079
:104F600010B50C4B82B01C68019405290AD8014485
:104F7000002091F828101170019A1B689A4206D1FE
:104F800002B010BD002111706FF00300F4E7FCF7D0
:104F9000DFF900BF00080020000000000000000052
:104FA000F0B543181C4E83B0044693F828003368CC
:104FB00001930D46174630B105292AD8DFE801F0E4
:104FC000141E1A1C0C0C04EB81046263019A3368F2
:104FD0009A421CD103B0F0BDC2F34F226421204697
:104FE00002F0FEFF08B1F1E7626304EB85040020E4
:104FF0006763EBE7E263F8E72264F6E7C2F34F2268
:105000004421204602F0ECFF0028EED0DEE7FCF75A
:105010009FF96FF00300D9E70008002000000000AE
:1050200070B5204C82B023680193054616460529C9
:1050300034D8DFE801F0030E0C1E2020436B3360F0
:105040000020019A23689A4226D102B070BDC36B3A
:10505000F5E70DF10202442103F022F80028F0D117
:10506000BDF802305A028BB9AB6B336085F829006A
:10507000E7E7036CE3E70DF10202642103F010F8A7
:105080000028DED1BDF802305B02D8E70123326090
:10509000AA6385F82930D4E7FCF75AF96FF00300CA
:1050A000CFE700BF00080020000000000000000063
:1050B00070B5104C82B00E46236801930DF10302C7
:1050C0000121054602F0D4FF58B99DF8033085F858
:1050D00030311B064BBF012303463370307085F817
:1050E0004C30019A23689A4201D102B070BDFCF79E
:1050F0002FF900BF000800200000000000000000A1
:105100002DE9F047DFF898A0027CDAF8003082B091
:105110000F4601F8082B06460193FFF759FEA0BB86
:10512000387307F110013046FFF79AFE68BB07F1AC
:105130001401304600F064FD38BB044607F1240535
:1051400006F1280907F118082A46A1B23046FFF7F0
:1051500067FFD0B9013419F8013B08F8013B062C70
:1051600005F10405F0D107F13C013046FFF7A0FF3F
:1051700058B9019ADAF800309A420ED1391D3046FA
:1051800002B0BDE8F04702F08BB8019ADAF80030BF
:105190009A4202D102B0BDE8F087FCF7D9F800BF0F
:1051A00000080020000000000000000000000000D7
:1051B0002DE9F041614F92B005463B681193002202
:1051C000882102F0F5FE4FF47A724FF4C8735C49FF
:1051D000A5F85221A5F854315A4AC5F858110023B0
:1051E000C5F8D42085F8F0302B62284601A9FFF7D6
:1051F00087FF044688B9ADF8040001AE0FCE05F173
:10520000100CACE80F000FCEACE80F000FCEACE8EE
:105210000F0096E80F008CE80F004B4BC5F83431B7
:1052200001264FF420634FF4FA72A5F83C31A5F83B
:1052300038218021324685F85061284602F0B8FEB8
:1052400032468046FF21284602F0B2FE002248EA9C
:10525000000011460443284602F0AAFE64B20DF194
:10526000030204439121284602F002FF64B29DF834
:10527000033085F83A31044332460021284602F0D3
:1052800097FE64B200220443FF21284602F090FEFC
:1052900064B2044300228021284602F089FE64B2F1
:1052A000204340B278B90146324628463446FFF7DB
:1052B000FFFD40B90122A1B228461444FFF7F8FDD2
:1052C000062CF6D130B1119A3B689A4233D112B014
:1052D000BDE8F0816885024604212846FFF7E8FD15
:1052E0000028F0D1024605212846FFF7E1FD0028FD
:1052F000E9D14FF490136B634FF4804201212846AB
:10530000FFF74EFE0028DED14FF40C13EB6395F847
:105310002B3003B10023FF222B6485F830210121BB
:10532000284602F045FE012385F832310028CAD113
:1053300085F81501C7E7FCF70BF800BF000800204F
:10534000856B0100A4700900640084030000000064
:1053500010B5084B82B01C680194019C1B689C42EC
:1053600005D1012302B0BDE8104000F039BFFBF7C2
:10537000EFFF00BF00080020000000000000000058
:1053800030B5184C90F8DA30226883B0042B0192C3
:105390000D460DF1030211D0142102F069FE20B96F
:1053A0009DF80330DB0706D42870019A23689A42DF
:1053B00015D103B030BD01232B70F6E7132102F0A5
:1053C00057FE9DF8033013F0180F03F0070318BFC2
:1053D0006FF00500042BEED000232B70E5E7FBF700
:1053E000B7FF00BF00080020000000000000000020
:1053F0002DE9F047564F8EB03B680D930C460C23B9
:105400000AAA1421054602F0B3FD8646002840F0A2
:105410008B809DF82EE09DF830C09DF82F209DF8E0
:1054200031109DF82A609DF82B30A07502EB0E22FA
:1054300001EB0C2192B289B249025202C4E9032164
:1054400003EB0623C4E900009BB2A3829DF83280DF
:105450009DF83360B5F852E195F831C19DF82810F8
:1054600006EB0826BEF57A7FB6B21FD006FB0EF615
:10547000DFF8E09095F81C80D5F820E006F5FA7684
:10548000A9FB0696B609B8F1000F0ED01FFA8EFEE2
:1054900003FB0EFE4FEA2E2E72454DD0B6B202FB34
:1054A00006F6A2EB0E0EB6FBFEF6B6B2BCF1000F8E
:1054B00047D0B001C0B2B608E0750DF10B002681EF
:1054C000CDE90040284602F043FA864660BB9DF8CD
:1054D0000B8084F8188005F150060FCE0DF10C0CEE
:1054E000ACE80F002389ADF8143096E80700638913
:1054F000ADF81630E36894F817A0B4F8149006934A
:105500002369646804948CE8070003AC8DF8248058
:105510008DF823A00793ADF820900FCC50350FC520
:105520009CE8070086E807000D9A3B689A4270469F
:105530000CD10EB0BDE8F087BCF1000F03D148F6E6
:10554000E0260020B8E740F6AE06B5E7FBF700FF1F
:1055500000080020D34D6210000000000000000091
:105560002DE9F041134D144C296882B01646019183
:105570000DF102020E211F46804602F091FDBDF89A
:10558000023004EA4343336050B90DF10202404651
:105590000C2102F085FDBDF8023004EA43443C6072
:1055A000019A2B689A4202D102B0BDE8F081FBF764
:1055B000CFFE00BF000800200000FE1F000000001A
:1055C000F0B590F8DA30254C85B0013B22680392A3
:1055D000022B07D90025039A23689A4228463AD11C
:1055E00005B0F0BD02AB0F4601AA01210646FFF748
:1055F000B7FF019BB3F57F0F05461FD9002DEAD1F8
:105600001FBB0422FF21304602F0D2FC2A46074687
:105610007021304602F0CCFC2A460743FF21304679
:1056200002F0C6FC7FB22A46802147EA00053046D8
:1056300002F0BEFC6DB205436DB2CCE7029BB3F540
:105640007F0FC8D9002DDBD0C5E73046044901F0F3
:105650009FFE0546BFE7FBF77BFE00BF000800206A
:105660006C090020000000000000000000000000A5
:10567000F0B53F4F057C3B6883B004460122802192
:10568000019302F095FC0122FF21204602F090FCDC
:1056900000221146204602F08BFC94F83A21912119
:1056A000204602F085FC01220021204602F080FC09
:1056B0000022FF21204602F07BFC204600228021B0
:1056C00002F076FC012D37D017D3032D08D06FF0F0
:1056D0000706019A3B689A42304647D103B0F0BDB5
:1056E00068B304220021204602F062FC064600282E
:1056F000EFD1042384F83231EBE701220021204668
:1057000002F056FC012306468DF803300028E0D154
:1057100005462DB301350DF103020021204602F0AC
:10572000A7FC9DF80330DB0713D590B9B5F5FA6FE8
:10573000EFD16FF00606CCE730B10222D2E70121AB
:105740002046FFF73DFFCCE729462046FFF738FF0C
:10575000F3E7B5F5FA6F14BF06466FF00606B8E733
:105760009DF80330DA07B4D50225D4E7FBF7F0FD46
:105770000008002000000000000000000000000001
:1057800030B5114C037C226883B0019283B9054681
:10579000FFF76EFF30B9284600F072FF10B90323FF
:1057A00085F83231019A23689A420AD103B030BD9C
:1057B000019A23689A4204D103B0BDE8304000F05A
:1057C0005FBFFBF7C5FD00BF000800200000000020
:1057D000F0B51A4F83B03B680193064600250122BD
:1057E0000B21304602F0E4FB002204460B21304638
:1057F00002F0DEFB0DF1030204431321304602F0F8
:1058000037FC9DF8033064B2204301355B0740B29A
:10581000EDB20CD0032D07D00028E0D0019A3B68F0
:105820009A4209D103B0F0BD6FF00B00F6E7032DEB
:1058300008BF6FF00B00F1E7FBF78AFD00080020BE
:1058400070B5124C82B000222368027405460E46E1
:105850000193FFF795FF28B1019A23689A4212D16C
:1058600002B070BD31462846FFF7C2FD0028F3D1D3
:10587000019A23689A4206D10146284602B0BDE843
:105880007040FFF7A5BFFBF763FD00BF00080020D5
:10589000F0B5574D83B02C680194152906463AD0CF
:1058A00014461F46042A00F2A080DFE802F02132ED
:1058B0002E30030004220A21304602F079FBF0B9B1
:1058C000002F14BF10230023EF228421304602F062
:1058D0009FFBA0B9019A2B6886F8DA409A4240F003
:1058E00082800146304603B0BDE8F040FFF770BF4C
:1058F00000220A21304602F05BFB0028E0D0019A2A
:105900002B689A426FD103B0F0BD0222D3E7032285
:10591000D1E70122CFE70122FF2102F049FB00225B
:1059200011460446304602F043FB00220443FF21A7
:10593000304602F03DFB64B2012204438021304630
:1059400002F036FB64B2022204438521304602F0A5
:105950002FFB64B204220443FF21304602F028FBEF
:1059600064B200220443CD21304602F021FB64B230
:1059700011220443CC21304602F01AFB64B2072204
:105980000443FF21304602F013FB64B200220443BB
:10599000BE21304602F00CFB64B206220443FF2114
:1059A000304602F005FB64B209220443CC213046A4
:1059B00002F0FEFA64B200220443FF21304602F0F6
:1059C000F7FA64B201220443FF21304602F0F0FAF4
:1059D00064B2002204431146304602F0E9FA64B290
:1059E000204340B28BE7FBF7B3FC6FF00A0086E779
:1059F000000800200000000000000000000000007F
:105A0000F0B5704F97B004463B68159340220021D3
:105A100005A80FF0BDF8002320460121ADF80A309B
:105A20008DF807308DF80830039300F091FE94F85C
:105A30001421012A06D894F8131100F0B9800C291A
:105A400040F2B98002AA03A9204600F0F9FB0546FE
:105A5000002D40F0A38094F85031002B00F0A58079
:105A60005949204601F094FC0546002840F09680F4
:105A70002B46294604222046FFF70AFF0546002848
:105A800040F08C800122FF21204602F091FA0DF1B6
:105A90000A0206468421204602F002FB2A46FF2124
:105AA00046EA0005204602F083FA6DB205436DB266
:105AB000002D73D1BDF80A301B01C4F8D43005A9FC
:105AC0002046FFF71DFB0546002867D10DF10702B0
:105AD0000921204602F0CCFA054600285ED105AE29
